{
  "contractName": "Voting",
  "abi": [
    {
      "constant": false,
      "inputs": [
        {
          "name": "_topic",
          "type": "string"
        },
        {
          "name": "_description",
          "type": "string"
        },
        {
          "name": "_voteState",
          "type": "uint8"
        },
        {
          "name": "_startDate",
          "type": "string"
        },
        {
          "name": "_endDate",
          "type": "string"
        }
      ],
      "name": "createVotingTopic",
      "outputs": [],
      "payable": false,
      "stateMutability": "nonpayable",
      "type": "function"
    },
    {
      "constant": false,
      "inputs": [
        {
          "name": "_votingId",
          "type": "uint256"
        },
        {
          "name": "_newState",
          "type": "uint8"
        }
      ],
      "name": "updateVotingState",
      "outputs": [],
      "payable": false,
      "stateMutability": "nonpayable",
      "type": "function"
    },
    {
      "constant": false,
      "inputs": [
        {
          "name": "_role",
          "type": "string"
        }
      ],
      "name": "createUser",
      "outputs": [],
      "payable": false,
      "stateMutability": "nonpayable",
      "type": "function"
    },
    {
      "constant": false,
      "inputs": [
        {
          "name": "_voteId",
          "type": "uint256"
        },
        {
          "name": "_vote",
          "type": "bool"
        }
      ],
      "name": "vote",
      "outputs": [],
      "payable": false,
      "stateMutability": "nonpayable",
      "type": "function"
    },
    {
      "constant": true,
      "inputs": [
        {
          "name": "_address",
          "type": "address"
        },
        {
          "name": "_voteId",
          "type": "uint256"
        }
      ],
      "name": "isVoted",
      "outputs": [
        {
          "name": "",
          "type": "bool"
        }
      ],
      "payable": false,
      "stateMutability": "view",
      "type": "function"
    },
    {
      "constant": true,
      "inputs": [
        {
          "name": "_voteId",
          "type": "uint256"
        }
      ],
      "name": "getVotingTopic",
      "outputs": [
        {
          "name": "",
          "type": "string"
        },
        {
          "name": "",
          "type": "uint256"
        },
        {
          "name": "",
          "type": "string"
        },
        {
          "name": "",
          "type": "uint8"
        },
        {
          "name": "",
          "type": "uint256"
        },
        {
          "name": "",
          "type": "uint256"
        },
        {
          "name": "",
          "type": "string"
        },
        {
          "name": "",
          "type": "string"
        }
      ],
      "payable": false,
      "stateMutability": "view",
      "type": "function"
    },
    {
      "constant": true,
      "inputs": [],
      "name": "getVotingTopicsCount",
      "outputs": [
        {
          "name": "",
          "type": "uint256"
        }
      ],
      "payable": false,
      "stateMutability": "view",
      "type": "function"
    }
  ],
  "bytecode": "0x60606040526000600255341561001457600080fd5b611041806100236000396000f300606060405260043610610083576000357c0100000000000000000000000000000000000000000000000000000000900463ffffffff1680631ada0d7e146100885780633a4902cb14610292578063507ffba5146102bb5780637cd1b050146103185780638ee36f05146103475780639a7df5bb146103a1578063c9d27afe146104d3575b600080fd5b341561009357600080fd5b6100a96004808035906020019091905050610501565b6040518080602001898152602001806020018860028111156100c757fe5b60ff168152602001878152602001868152602001806020018060200185810385528d818151815260200191508051906020019080838360005b8381101561011b578082015181840152602081019050610100565b50505050905090810190601f1680156101485780820380516001836020036101000a031916815260200191505b5085810384528b818151815260200191508051906020019080838360005b83811015610181578082015181840152602081019050610166565b50505050905090810190601f1680156101ae5780820380516001836020036101000a031916815260200191505b50858103835287818151815260200191508051906020019080838360005b838110156101e75780820151818401526020810190506101cc565b50505050905090810190601f1680156102145780820380516001836020036101000a031916815260200191505b50858103825286818151815260200191508051906020019080838360005b8381101561024d578082015181840152602081019050610232565b50505050905090810190601f16801561027a5780820380516001836020036101000a031916815260200191505b509c5050505050505050505050505060405180910390f35b341561029d57600080fd5b6102a56107fc565b6040518082815260200191505060405180910390f35b34156102c657600080fd5b610316600480803590602001908201803590602001908080601f01602080910402602001604051908101604052809392919081815260200183838082843782019150505050505091905050610806565b005b341561032357600080fd5b610345600480803590602001909190803560ff16906020019091905050610883565b005b341561035257600080fd5b610387600480803573ffffffffffffffffffffffffffffffffffffffff169060200190919080359060200190919050506109f9565b604051808215151515815260200191505060405180910390f35b34156103ac57600080fd5b6104d1600480803590602001908201803590602001908080601f0160208091040260200160405190810160405280939291908181526020018383808284378201915050505050509190803590602001908201803590602001908080601f0160208091040260200160405190810160405280939291908181526020018383808284378201915050505050509190803560ff1690602001909190803590602001908201803590602001908080601f0160208091040260200160405190810160405280939291908181526020018383808284378201915050505050509190803590602001908201803590602001908080601f01602080910402602001604051908101604052809392919081815260200183838082843782019150505050505091905050610a68565b005b34156104de57600080fd5b6104ff60048080359060200190919080351515906020019091905050610c9d565b005b610509610ec5565b6000610513610ec5565b6000806000610520610ec5565b610528610ec5565b6000600160008b81526020019081526020016000209050806000018160010154826002018360050160009054906101000a900460ff16846006015485600701548660030187600401878054600181600116156101000203166002900480601f0160208091040260200160405190810160405280929190818152602001828054600181600116156101000203166002900480156106055780601f106105da57610100808354040283529160200191610605565b820191906000526020600020905b8154815290600101906020018083116105e857829003601f168201915b50505050509750858054600181600116156101000203166002900480601f0160208091040260200160405190810160405280929190818152602001828054600181600116156101000203166002900480156106a15780601f10610676576101008083540402835291602001916106a1565b820191906000526020600020905b81548152906001019060200180831161068457829003601f168201915b50505050509550818054600181600116156101000203166002900480601f01602080910402602001604051908101604052809291908181526020018280546001816001161561010002031660029004801561073d5780601f106107125761010080835404028352916020019161073d565b820191906000526020600020905b81548152906001019060200180831161072057829003601f168201915b50505050509150808054600181600116156101000203166002900480601f0160208091040260200160405190810160405280929190818152602001828054600181600116156101000203166002900480156107d95780601f106107ae576101008083540402835291602001916107d9565b820191906000526020600020905b8154815290600101906020018083116107bc57829003601f168201915b505050505090509850985098509850985098509850985050919395975091939597565b6000600254905090565b61080e610ed9565b602060405190810160405280838152509050806000803373ffffffffffffffffffffffffffffffffffffffff1673ffffffffffffffffffffffffffffffffffffffff168152602001908152602001600020600082015181600001908051906020019061087b929190610ef3565b509050505050565b60405180807f41646d696e00000000000000000000000000000000000000000000000000000081525060050190506040518091039020600019166000803373ffffffffffffffffffffffffffffffffffffffff1673ffffffffffffffffffffffffffffffffffffffff16815260200190815260200160002060000160405180828054600181600116156101000203166002900480156109595780601f10610937576101008083540402835291820191610959565b820191906000526020600020905b815481529060010190602001808311610945575b505091505060405180910390206000191614151561097657600080fd5b60028081111561098257fe5b6001600084815260200190815260200160002060050160009054906101000a900460ff1660028111156109b157fe5b141515156109be57600080fd5b806001600084815260200190815260200160002060050160006101000a81548160ff021916908360028111156109f057fe5b02179055505050565b6000806000808573ffffffffffffffffffffffffffffffffffffffff1673ffffffffffffffffffffffffffffffffffffffff168152602001908152602001600020600101600084815260200190815260200160002060009054906101000a900460ff1690508091505092915050565b610a70610f73565b60405180807f41646d696e00000000000000000000000000000000000000000000000000000081525060050190506040518091039020600019166000803373ffffffffffffffffffffffffffffffffffffffff1673ffffffffffffffffffffffffffffffffffffffff1681526020019081526020016000206000016040518082805460018160011615610100020316600290048015610b465780601f10610b24576101008083540402835291820191610b46565b820191906000526020600020905b815481529060010190602001808311610b32575b5050915050604051809103902060001916141515610b6357600080fd5b610100604051908101604052808781526020016002548152602001868152602001848152602001838152602001856002811115610b9c57fe5b81526020016000815260200160008152509050806001600060025481526020019081526020016000206000820151816000019080519060200190610be1929190610ef3565b50602082015181600101556040820151816002019080519060200190610c08929190610ef3565b506060820151816003019080519060200190610c25929190610ef3565b506080820151816004019080519060200190610c42929190610ef3565b5060a08201518160050160006101000a81548160ff02191690836002811115610c6757fe5b021790555060c0820151816006015560e08201518160070155905050600260008154809291906001019190505550505050505050565b60405180807f557365720000000000000000000000000000000000000000000000000000000081525060040190506040518091039020600019166000803373ffffffffffffffffffffffffffffffffffffffff1673ffffffffffffffffffffffffffffffffffffffff1681526020019081526020016000206000016040518082805460018160011615610100020316600290048015610d735780601f10610d51576101008083540402835291820191610d73565b820191906000526020600020905b815481529060010190602001808311610d5f575b5050915050604051809103902060001916141515610d9057600080fd5b600015156000803373ffffffffffffffffffffffffffffffffffffffff1673ffffffffffffffffffffffffffffffffffffffff168152602001908152602001600020600101600084815260200190815260200160002060009054906101000a900460ff161515141515610e0257600080fd5b8015610e3157600180600084815260200190815260200160002060060160008282540192505081905550610e56565b6001806000848152602001908152602001600020600701600082825401925050819055505b60016000803373ffffffffffffffffffffffffffffffffffffffff1673ffffffffffffffffffffffffffffffffffffffff168152602001908152602001600020600101600084815260200190815260200160002060006101000a81548160ff0219169083151502179055505050565b602060405190810160405280600081525090565b602060405190810160405280610eed610fdc565b81525090565b828054600181600116156101000203166002900490600052602060002090601f016020900481019282601f10610f3457805160ff1916838001178555610f62565b82800160010185558215610f62579182015b82811115610f61578251825591602001919060010190610f46565b5b509050610f6f9190610ff0565b5090565b61010060405190810160405280610f88610fdc565b815260200160008152602001610f9c610fdc565b8152602001610fa9610fdc565b8152602001610fb6610fdc565b815260200160006002811115610fc857fe5b815260200160008152602001600081525090565b602060405190810160405280600081525090565b61101291905b8082111561100e576000816000905550600101610ff6565b5090565b905600a165627a7a7230582072236f44f0940dedc1421fb8aa0abe1232445369aaf28f6f3f28786618bccf5b0029",
  "source": "// SPDX-License-Identifier: MIT\r\npragma solidity ^0.4.21;\r\n\r\ncontract Voting {\r\n    enum VoteState {Open, Freeze, Closed}\r\n\r\n    // enum Role {Admin, User}\r\n    struct User {\r\n        string role;\r\n        mapping(uint256 => bool) votes;\r\n    }\r\n\r\n    struct VotingTopic {\r\n        string topic;\r\n        uint256 id;\r\n        string description;\r\n        string startDate;\r\n        string endDate;\r\n        VoteState voteState;\r\n        uint256 voteCount_yes;\r\n        uint256 voteCount_no;\r\n    }\r\n\r\n    mapping(address => User) private Users;\r\n\r\n    //index => votingtopic ---> id => topic\r\n    mapping(uint256 => VotingTopic) private VotingTopics;\r\n    uint256 votingTopicsCount = 0;//it's both index and id\r\n\r\n    modifier onlyAdmin() {\r\n        require(keccak256(Users[msg.sender].role) == keccak256(\"Admin\"));\r\n        _;\r\n    }\r\n\r\n    modifier onlyUser() {\r\n        require(keccak256(Users[msg.sender].role) == keccak256(\"User\"));\r\n        _;\r\n    }\r\n\r\n    function createVotingTopic(\r\n        string _topic,\r\n        string _description,\r\n        VoteState _voteState,\r\n        string _startDate,\r\n        string _endDate\r\n    ) onlyAdmin public {\r\n        VotingTopic memory newVotingTopic =\r\n            VotingTopic({\r\n                topic: _topic,\r\n                id: votingTopicsCount,\r\n                description: _description,\r\n                startDate: _startDate,\r\n                endDate: _endDate,\r\n                voteState: _voteState,\r\n                voteCount_yes: 0,\r\n                voteCount_no: 0\r\n            });\r\n        VotingTopics[votingTopicsCount] = newVotingTopic;\r\n        votingTopicsCount++;\r\n    }\r\n\r\n    function updateVotingState(uint256 _votingId,VoteState _newState) onlyAdmin public {\r\n        require(VotingTopics[_votingId].voteState != VoteState.Closed);\r\n        VotingTopics[_votingId].voteState = _newState;\r\n    }\r\n\r\n    function createUser(\r\n        string _role\r\n    ) public {\r\n        User memory newUser = User({ role: _role});\r\n        Users[msg.sender] = newUser;\r\n    }\r\n\r\n    function vote(uint256 _voteId, bool _vote) onlyUser public {\r\n        require(Users[msg.sender].votes[_voteId] == false);\r\n        \r\n            if (_vote) {\r\n                VotingTopics[_voteId].voteCount_yes += 1;\r\n            } else {\r\n                VotingTopics[_voteId].voteCount_no += 1;\r\n            }\r\n\r\n            Users[msg.sender].votes[_voteId] = true;            \r\n        \r\n\r\n    }\r\n\r\n    function isVoted(address _address, uint256 _voteId)\r\n        public\r\n        view\r\n        returns (bool)\r\n    {\r\n        \r\n        bool result = Users[_address].votes[_voteId];\r\n        return result;\r\n    }\r\n\r\n    function getVotingTopic(uint256 _voteId)\r\n        public\r\n        view\r\n        returns (\r\n            string,\r\n            uint256,\r\n            string,\r\n            VoteState,\r\n            uint256,\r\n            uint256,\r\n            string,\r\n            string\r\n        )\r\n    {\r\n        VotingTopic storage vt = VotingTopics[_voteId];\r\n        return (\r\n            vt.topic,\r\n            vt.id,\r\n            vt.description,\r\n            vt.voteState,\r\n            vt.voteCount_yes,\r\n            vt.voteCount_no,\r\n            vt.startDate,\r\n            vt.endDate\r\n        );\r\n    }\r\n\r\n    function getVotingTopicsCount() public view returns (uint256) {\r\n        return votingTopicsCount;\r\n    }\r\n    \r\n}\r\n",
  "sourcePath": "H:/Docs/VotingApp/contracts/Voting.sol",
  "compiler": {
    "name": "solc",
    "version": "0.4.21+commit.dfe3193c.Emscripten.clang"
  },
  "schemaVersion": "3.3.4",
  "updatedAt": "2021-02-26T07:04:42.362Z",
  "networkType": "ethereum",
  "devdoc": {
    "methods": {}
  },
  "userdoc": {
    "methods": {}
  }
}